{
  "_format": "hh-sol-artifact-1",
  "contractName": "MyContract",
  "sourceName": "contracts/Contract.sol",
  "abi": [
    {
      "inputs": [],
      "name": "decrementCounter",
      "outputs": [],
      "stateMutability": "nonpayable",
      "type": "function"
    },
    {
      "inputs": [],
      "name": "getCounter",
      "outputs": [
        {
          "internalType": "uint256",
          "name": "",
          "type": "uint256"
        }
      ],
      "stateMutability": "view",
      "type": "function"
    },
    {
      "inputs": [],
      "name": "incrementCounter",
      "outputs": [],
      "stateMutability": "nonpayable",
      "type": "function"
    }
  ],
  "bytecode": "0x60806040526000805534801561001457600080fd5b5060fb806100236000396000f3fe6080604052348015600f57600080fd5b5060043610603c5760003560e01c80635b34b9661460415780638ada066e146049578063f5c5ad8314605e575b600080fd5b60476064565b005b60005460405190815260200160405180910390f35b60476078565b600080549080607183609b565b9190505550565b60008054908060718360b1565b634e487b7160e01b600052601160045260246000fd5b60006001820160aa5760aa6085565b5060010190565b60008160bd5760bd6085565b50600019019056fea2646970667358221220a16eced1ea9a01fe825db7eec58bf66fb44cf8830a1e966ed5ac345dfb77fe1f64736f6c63430008110033",
  "linkReferences": {},
  "deployedLinkReferences": {}
}