{"contracts/Contract.sol":{"MyContract":{"abi":[{"inputs":[],"name":"decrementCounter","outputs":[],"stateMutability":"nonpayable","type":"function"},{"inputs":[],"name":"getCounter","outputs":[{"internalType":"uint256","name":"","type":"uint256"}],"stateMutability":"view","type":"function"},{"inputs":[],"name":"incrementCounter","outputs":[],"stateMutability":"nonpayable","type":"function"}],"evm":{"bytecode":{"linkReferences":{},"object":"60806040526000805534801561001457600080fd5b5060fb806100236000396000f3fe6080604052348015600f57600080fd5b5060043610603c5760003560e01c80635b34b9661460415780638ada066e146049578063f5c5ad8314605e575b600080fd5b60476064565b005b60005460405190815260200160405180910390f35b60476078565b600080549080607183609b565b9190505550565b60008054908060718360b1565b634e487b7160e01b600052601160045260246000fd5b60006001820160aa5760aa6085565b5060010190565b60008160bd5760bd6085565b50600019019056fea2646970667358221220a16eced1ea9a01fe825db7eec58bf66fb44cf8830a1e966ed5ac345dfb77fe1f64736f6c63430008110033","opcodes":"PUSH1 0x80 PUSH1 0x40 MSTORE PUSH1 0x0 DUP1 SSTORE CALLVALUE DUP1 ISZERO PUSH2 0x14 JUMPI PUSH1 0x0 DUP1 REVERT JUMPDEST POP PUSH1 0xFB DUP1 PUSH2 0x23 PUSH1 0x0 CODECOPY PUSH1 0x0 RETURN INVALID PUSH1 0x80 PUSH1 0x40 MSTORE CALLVALUE DUP1 ISZERO PUSH1 0xF JUMPI PUSH1 0x0 DUP1 REVERT JUMPDEST POP PUSH1 0x4 CALLDATASIZE LT PUSH1 0x3C JUMPI PUSH1 0x0 CALLDATALOAD PUSH1 0xE0 SHR DUP1 PUSH4 0x5B34B966 EQ PUSH1 0x41 JUMPI DUP1 PUSH4 0x8ADA066E EQ PUSH1 0x49 JUMPI DUP1 PUSH4 0xF5C5AD83 EQ PUSH1 0x5E JUMPI JUMPDEST PUSH1 0x0 DUP1 REVERT JUMPDEST PUSH1 0x47 PUSH1 0x64 JUMP JUMPDEST STOP JUMPDEST PUSH1 0x0 SLOAD PUSH1 0x40 MLOAD SWAP1 DUP2 MSTORE PUSH1 0x20 ADD PUSH1 0x40 MLOAD DUP1 SWAP2 SUB SWAP1 RETURN JUMPDEST PUSH1 0x47 PUSH1 0x78 JUMP JUMPDEST PUSH1 0x0 DUP1 SLOAD SWAP1 DUP1 PUSH1 0x71 DUP4 PUSH1 0x9B JUMP JUMPDEST SWAP2 SWAP1 POP SSTORE POP JUMP JUMPDEST PUSH1 0x0 DUP1 SLOAD SWAP1 DUP1 PUSH1 0x71 DUP4 PUSH1 0xB1 JUMP JUMPDEST PUSH4 0x4E487B71 PUSH1 0xE0 SHL PUSH1 0x0 MSTORE PUSH1 0x11 PUSH1 0x4 MSTORE PUSH1 0x24 PUSH1 0x0 REVERT JUMPDEST PUSH1 0x0 PUSH1 0x1 DUP3 ADD PUSH1 0xAA JUMPI PUSH1 0xAA PUSH1 0x85 JUMP JUMPDEST POP PUSH1 0x1 ADD SWAP1 JUMP JUMPDEST PUSH1 0x0 DUP2 PUSH1 0xBD JUMPI PUSH1 0xBD PUSH1 0x85 JUMP JUMPDEST POP PUSH1 0x0 NOT ADD SWAP1 JUMP INVALID LOG2 PUSH5 0x6970667358 0x22 SLT KECCAK256 LOG1 PUSH15 0xCED1EA9A01FE825DB7EEC58BF66FB4 0x4C 0xF8 DUP4 EXP 0x1E SWAP7 PUSH15 0xD5AC345DFB77FE1F64736F6C634300 ADDMOD GT STOP CALLER "},"methodIdentifiers":{"decrementCounter()":"f5c5ad83","getCounter()":"8ada066e","incrementCounter()":"5b34b966"}}}}}